{
  "_format": "hh-sol-artifact-1",
  "contractName": "NFTCollection",
  "sourceName": "contracts/NFTCollection.sol",
  "abi": [
    {
      "inputs": [],
      "stateMutability": "nonpayable",
      "type": "constructor"
    },
    {
      "anonymous": false,
      "inputs": [
        {
          "indexed": true,
          "internalType": "address",
          "name": "owner",
          "type": "address"
        },
        {
          "indexed": true,
          "internalType": "address",
          "name": "approved",
          "type": "address"
        },
        {
          "indexed": true,
          "internalType": "uint256",
          "name": "tokenId",
          "type": "uint256"
        }
      ],
      "name": "Approval",
      "type": "event"
    },
    {
      "anonymous": false,
      "inputs": [
        {
          "indexed": true,
          "internalType": "address",
          "name": "owner",
          "type": "address"
        },
        {
          "indexed": true,
          "internalType": "address",
          "name": "operator",
          "type": "address"
        },
        {
          "indexed": false,
          "internalType": "bool",
          "name": "approved",
          "type": "bool"
        }
      ],
      "name": "ApprovalForAll",
      "type": "event"
    },
    {
      "anonymous": false,
      "inputs": [
        {
          "indexed": false,
          "internalType": "address",
          "name": "sender",
          "type": "address"
        },
        {
          "indexed": false,
          "internalType": "uint256",
          "name": "tokenId",
          "type": "uint256"
        }
      ],
      "name": "NewEpicNFTMinted",
      "type": "event"
    },
    {
      "anonymous": false,
      "inputs": [
        {
          "indexed": true,
          "internalType": "address",
          "name": "from",
          "type": "address"
        },
        {
          "indexed": true,
          "internalType": "address",
          "name": "to",
          "type": "address"
        },
        {
          "indexed": true,
          "internalType": "uint256",
          "name": "tokenId",
          "type": "uint256"
        }
      ],
      "name": "Transfer",
      "type": "event"
    },
    {
      "inputs": [
        {
          "internalType": "address",
          "name": "to",
          "type": "address"
        },
        {
          "internalType": "uint256",
          "name": "tokenId",
          "type": "uint256"
        }
      ],
      "name": "approve",
      "outputs": [],
      "stateMutability": "nonpayable",
      "type": "function"
    },
    {
      "inputs": [
        {
          "internalType": "address",
          "name": "owner",
          "type": "address"
        }
      ],
      "name": "balanceOf",
      "outputs": [
        {
          "internalType": "uint256",
          "name": "",
          "type": "uint256"
        }
      ],
      "stateMutability": "view",
      "type": "function"
    },
    {
      "inputs": [
        {
          "internalType": "uint256",
          "name": "tokenId",
          "type": "uint256"
        }
      ],
      "name": "getApproved",
      "outputs": [
        {
          "internalType": "address",
          "name": "",
          "type": "address"
        }
      ],
      "stateMutability": "view",
      "type": "function"
    },
    {
      "inputs": [
        {
          "internalType": "address",
          "name": "owner",
          "type": "address"
        },
        {
          "internalType": "address",
          "name": "operator",
          "type": "address"
        }
      ],
      "name": "isApprovedForAll",
      "outputs": [
        {
          "internalType": "bool",
          "name": "",
          "type": "bool"
        }
      ],
      "stateMutability": "view",
      "type": "function"
    },
    {
      "inputs": [],
      "name": "makeAnEpicNFT",
      "outputs": [],
      "stateMutability": "nonpayable",
      "type": "function"
    },
    {
      "inputs": [],
      "name": "name",
      "outputs": [
        {
          "internalType": "string",
          "name": "",
          "type": "string"
        }
      ],
      "stateMutability": "view",
      "type": "function"
    },
    {
      "inputs": [
        {
          "internalType": "uint256",
          "name": "tokenId",
          "type": "uint256"
        }
      ],
      "name": "ownerOf",
      "outputs": [
        {
          "internalType": "address",
          "name": "",
          "type": "address"
        }
      ],
      "stateMutability": "view",
      "type": "function"
    },
    {
      "inputs": [
        {
          "internalType": "uint256",
          "name": "tokenId",
          "type": "uint256"
        }
      ],
      "name": "pickRandomFirstWord",
      "outputs": [
        {
          "internalType": "string",
          "name": "",
          "type": "string"
        }
      ],
      "stateMutability": "view",
      "type": "function"
    },
    {
      "inputs": [
        {
          "internalType": "uint256",
          "name": "tokenId",
          "type": "uint256"
        }
      ],
      "name": "pickRandomSecondWord",
      "outputs": [
        {
          "internalType": "string",
          "name": "",
          "type": "string"
        }
      ],
      "stateMutability": "view",
      "type": "function"
    },
    {
      "inputs": [
        {
          "internalType": "uint256",
          "name": "tokenId",
          "type": "uint256"
        }
      ],
      "name": "pickRandomThirdWord",
      "outputs": [
        {
          "internalType": "string",
          "name": "",
          "type": "string"
        }
      ],
      "stateMutability": "view",
      "type": "function"
    },
    {
      "inputs": [
        {
          "internalType": "address",
          "name": "from",
          "type": "address"
        },
        {
          "internalType": "address",
          "name": "to",
          "type": "address"
        },
        {
          "internalType": "uint256",
          "name": "tokenId",
          "type": "uint256"
        }
      ],
      "name": "safeTransferFrom",
      "outputs": [],
      "stateMutability": "nonpayable",
      "type": "function"
    },
    {
      "inputs": [
        {
          "internalType": "address",
          "name": "from",
          "type": "address"
        },
        {
          "internalType": "address",
          "name": "to",
          "type": "address"
        },
        {
          "internalType": "uint256",
          "name": "tokenId",
          "type": "uint256"
        },
        {
          "internalType": "bytes",
          "name": "_data",
          "type": "bytes"
        }
      ],
      "name": "safeTransferFrom",
      "outputs": [],
      "stateMutability": "nonpayable",
      "type": "function"
    },
    {
      "inputs": [
        {
          "internalType": "address",
          "name": "operator",
          "type": "address"
        },
        {
          "internalType": "bool",
          "name": "approved",
          "type": "bool"
        }
      ],
      "name": "setApprovalForAll",
      "outputs": [],
      "stateMutability": "nonpayable",
      "type": "function"
    },
    {
      "inputs": [
        {
          "internalType": "bytes4",
          "name": "interfaceId",
          "type": "bytes4"
        }
      ],
      "name": "supportsInterface",
      "outputs": [
        {
          "internalType": "bool",
          "name": "",
          "type": "bool"
        }
      ],
      "stateMutability": "view",
      "type": "function"
    },
    {
      "inputs": [],
      "name": "symbol",
      "outputs": [
        {
          "internalType": "string",
          "name": "",
          "type": "string"
        }
      ],
      "stateMutability": "view",
      "type": "function"
    },
    {
      "inputs": [
        {
          "internalType": "uint256",
          "name": "tokenId",
          "type": "uint256"
        }
      ],
      "name": "tokenURI",
      "outputs": [
        {
          "internalType": "string",
          "name": "",
          "type": "string"
        }
      ],
      "stateMutability": "view",
      "type": "function"
    },
    {
      "inputs": [
        {
          "internalType": "address",
          "name": "from",
          "type": "address"
        },
        {
          "internalType": "address",
          "name": "to",
          "type": "address"
        },
        {
          "internalType": "uint256",
          "name": "tokenId",
          "type": "uint256"
        }
      ],
      "name": "transferFrom",
      "outputs": [],
      "stateMutability": "nonpayable",
      "type": "function"
    }
  ],
  "bytecode": "0x608060405260405180610160016040528061012f81526020016200489361012f9139600890805190602001906200003892919062000cba565b50604051806101e001604052806040518060400160405280600581526020017f536375626100000000000000000000000000000000000000000000000000000081525081526020016040518060400160405280600581526020017f446972747900000000000000000000000000000000000000000000000000000081525081526020016040518060400160405280600581526020017f556e636c6500000000000000000000000000000000000000000000000000000081525081526020016040518060400160405280600681526020017f4d6973746572000000000000000000000000000000000000000000000000000081525081526020016040518060400160405280600881526020017f456c65637472696300000000000000000000000000000000000000000000000081525081526020016040518060400160405280600781526020017f5370656369616c0000000000000000000000000000000000000000000000000081525081526020016040518060400160405280600781526020017f427574746572790000000000000000000000000000000000000000000000000081525081526020016040518060400160405280600681526020017f4c6971756964000000000000000000000000000000000000000000000000000081525081526020016040518060400160405280600481526020017f4d72732e0000000000000000000000000000000000000000000000000000000081525081526020016040518060400160405280600581526020017f536f75746800000000000000000000000000000000000000000000000000000081525081526020016040518060400160405280600481526020017f426162790000000000000000000000000000000000000000000000000000000081525081526020016040518060400160405280600681526020017f517569726b79000000000000000000000000000000000000000000000000000081525081526020016040518060400160405280600381526020017f546865000000000000000000000000000000000000000000000000000000000081525081526020016040518060400160405280600381526020017f426967000000000000000000000000000000000000000000000000000000000081525081526020016040518060400160405280600481526020017f4f6e6c7900000000000000000000000000000000000000000000000000000000815250815250600990600f620003ca92919062000d4b565b50604051806101e001604052806040518060400160405280600681526020017f446f6e6b6579000000000000000000000000000000000000000000000000000081525081526020016040518060400160405280600681526020017f536869727479000000000000000000000000000000000000000000000000000081525081526020016040518060400160405280600681526020017f46656d616c65000000000000000000000000000000000000000000000000000081525081526020016040518060400160405280600481526020017f4475636b0000000000000000000000000000000000000000000000000000000081525081526020016040518060400160405280600481526020017f50756d700000000000000000000000000000000000000000000000000000000081525081526020016040518060400160405280600581526020017f467269657300000000000000000000000000000000000000000000000000000081525081526020016040518060400160405280600881526020017f4f696e746d656e7400000000000000000000000000000000000000000000000081525081526020016040518060400160405280600681526020017f5061726f6c65000000000000000000000000000000000000000000000000000081525081526020016040518060400160405280600681526020017f4e6f6f646c65000000000000000000000000000000000000000000000000000081525081526020016040518060400160405280600681526020017f427574746572000000000000000000000000000000000000000000000000000081525081526020016040518060400160405280600281526020017f4d6500000000000000000000000000000000000000000000000000000000000081525081526020016040518060400160405280600781526020017f436869636b656e0000000000000000000000000000000000000000000000000081525081526020016040518060400160405280600581526020017f456c626f7700000000000000000000000000000000000000000000000000000081525081526020016040518060400160405280600681526020017f436865657365000000000000000000000000000000000000000000000000000081525081526020016040518060400160405280600581526020017f4675646765000000000000000000000000000000000000000000000000000000815250815250600a90600f6200075c92919062000d4b565b50604051806101e001604052806040518060400160405280600581526020017f536f636b7300000000000000000000000000000000000000000000000000000081525081526020016040518060400160405280600781526020017f4d6174746572730000000000000000000000000000000000000000000000000081525081526020016040518060400160405280600581526020017f4c756d707300000000000000000000000000000000000000000000000000000081525081526020016040518060400160405280600381526020017f48616d000000000000000000000000000000000000000000000000000000000081525081526020016040518060400160405280600581526020017f467275697400000000000000000000000000000000000000000000000000000081525081526020016040518060400160405280600681526020017f436875726368000000000000000000000000000000000000000000000000000081525081526020016040518060400160405280600881526020017f46726f677370697400000000000000000000000000000000000000000000000081525081526020016040518060400160405280600581526020017f426f6f747900000000000000000000000000000000000000000000000000000081525081526020016040518060400160405280600481526020017f4c6f76650000000000000000000000000000000000000000000000000000000081525081526020016040518060400160405280600881526020017f4d6973636869656600000000000000000000000000000000000000000000000081525081526020016040518060400160405280600681526020017f517565617379000000000000000000000000000000000000000000000000000081525081526020016040518060400160405280600781526020017f43686f776465720000000000000000000000000000000000000000000000000081525081526020016040518060400160405280600781526020017f43686f776465720000000000000000000000000000000000000000000000000081525081526020016040518060400160405280600681526020017f506174726f6c000000000000000000000000000000000000000000000000000081525081526020016040518060400160405280600881526020017f537175697272656c000000000000000000000000000000000000000000000000815250815250600b90600f62000aee92919062000d4b565b5034801562000afc57600080fd5b506040518060400160405280600b81526020017f457068656d6572614e46540000000000000000000000000000000000000000008152506040518060400160405280600481526020017f5048454d00000000000000000000000000000000000000000000000000000000815250816000908051906020019062000b8192919062000cba565b50806001908051906020019062000b9a92919062000cba565b50505062000be86040518060400160405280601981526020017f4e465420636f6e747261637420696e697469616c697a65642e0000000000000081525062000bee60201b620012551760201c565b62000f6c565b62000c8e8160405160240162000c05919062000e80565b6040516020818303038152906040527f41304fac000000000000000000000000000000000000000000000000000000007bffffffffffffffffffffffffffffffffffffffffffffffffffffffff19166020820180517bffffffffffffffffffffffffffffffffffffffffffffffffffffffff838183161783525050505062000c9160201b60201c565b50565b60008151905060006a636f6e736f6c652e6c6f679050602083016000808483855afa5050505050565b82805462000cc89062000ef6565b90600052602060002090601f01602090048101928262000cec576000855562000d38565b82601f1062000d0757805160ff191683800117855562000d38565b8280016001018555821562000d38579182015b8281111562000d3757825182559160200191906001019062000d1a565b5b50905062000d47919062000db2565b5090565b82805482825590600052602060002090810192821562000d9f579160200282015b8281111562000d9e57825182908051906020019062000d8d92919062000cba565b509160200191906001019062000d6c565b5b50905062000dae919062000dd1565b5090565b5b8082111562000dcd57600081600090555060010162000db3565b5090565b5b8082111562000df5576000818162000deb919062000df9565b5060010162000dd2565b5090565b50805462000e079062000ef6565b6000825580601f1062000e1b575062000e3c565b601f01602090049060005260206000209081019062000e3b919062000db2565b5b50565b600062000e4c8262000ea4565b62000e58818562000eaf565b935062000e6a81856020860162000ec0565b62000e758162000f5b565b840191505092915050565b6000602082019050818103600083015262000e9c818462000e3f565b905092915050565b600081519050919050565b600082825260208201905092915050565b60005b8381101562000ee057808201518184015260208101905062000ec3565b8381111562000ef0576000848401525b50505050565b6000600282049050600182168062000f0f57607f821691505b6020821081141562000f265762000f2562000f2c565b5b50919050565b7f4e487b7100000000000000000000000000000000000000000000000000000000600052602260045260246000fd5b6000601f19601f8301169050919050565b6139178062000f7c6000396000f3fe608060405234801561001057600080fd5b506004361061010b5760003560e01c806370a08231116100a2578063b88d4fde11610071578063b88d4fde146102dc578063c575757a146102f8578063c87b56dd14610328578063de9d132f14610358578063e985e9c5146103625761010b565b806370a082311461024257806395d89b4114610272578063a22cb46514610290578063b187301f146102ac5761010b565b806323b872dd116100de57806323b872dd146101aa5780632de38d68146101c657806342842e0e146101f65780636352211e146102125761010b565b806301ffc9a71461011057806306fdde0314610140578063081812fc1461015e578063095ea7b31461018e575b600080fd5b61012a600480360381019061012591906124c9565b610392565b604051610137919061318d565b60405180910390f35b610148610474565b60405161015591906131a8565b60405180910390f35b6101786004803603810190610173919061251b565b610506565b60405161018591906130fd565b60405180910390f35b6101a860048036038101906101a3919061248d565b61058b565b005b6101c460048036038101906101bf9190612387565b6106a3565b005b6101e060048036038101906101db919061251b565b610703565b6040516101ed91906131a8565b60405180910390f35b610210600480360381019061020b9190612387565b610821565b005b61022c6004803603810190610227919061251b565b610841565b60405161023991906130fd565b60405180910390f35b61025c60048036038101906102579190612322565b6108f3565b6040516102699190613408565b60405180910390f35b61027a6109ab565b60405161028791906131a8565b60405180910390f35b6102aa60048036038101906102a59190612451565b610a3d565b005b6102c660048036038101906102c1919061251b565b610bbe565b6040516102d391906131a8565b60405180910390f35b6102f660048036038101906102f191906123d6565b610cdc565b005b610312600480360381019061030d919061251b565b610d3e565b60405161031f91906131a8565b60405180910390f35b610342600480360381019061033d919061251b565b610e5c565b60405161034f91906131a8565b60405180910390f35b610360610fae565b005b61037c6004803603810190610377919061234b565b6111c1565b604051610389919061318d565b60405180910390f35b60007f80ac58cd000000000000000000000000000000000000000000000000000000007bffffffffffffffffffffffffffffffffffffffffffffffffffffffff1916827bffffffffffffffffffffffffffffffffffffffffffffffffffffffff1916148061045d57507f5b5e139f000000000000000000000000000000000000000000000000000000007bffffffffffffffffffffffffffffffffffffffffffffffffffffffff1916827bffffffffffffffffffffffffffffffffffffffffffffffffffffffff1916145b8061046d575061046c826112ee565b5b9050919050565b606060008054610483906136a7565b80601f01602080910402602001604051908101604052809291908181526020018280546104af906136a7565b80156104fc5780601f106104d1576101008083540402835291602001916104fc565b820191906000526020600020905b8154815290600101906020018083116104df57829003601f168201915b5050505050905090565b600061051182611358565b610550576040517f08c379a000000000000000000000000000000000000000000000000000000000815260040161054790613368565b60405180910390fd5b6004600083815260200190815260200160002060009054906101000a900473ffffffffffffffffffffffffffffffffffffffff169050919050565b600061059682610841565b90508073ffffffffffffffffffffffffffffffffffffffff168373ffffffffffffffffffffffffffffffffffffffff161415610607576040517f08c379a00000000000000000000000000000000000000000000000000000000081526004016105fe906133c8565b60405180910390fd5b8073ffffffffffffffffffffffffffffffffffffffff166106266113c4565b73ffffffffffffffffffffffffffffffffffffffff16148061065557506106548161064f6113c4565b6111c1565b5b610694576040517f08c379a000000000000000000000000000000000000000000000000000000000815260040161068b906132a8565b60405180910390fd5b61069e83836113cc565b505050565b6106b46106ae6113c4565b82611485565b6106f3576040517f08c379a00000000000000000000000000000000000000000000000000000000081526004016106ea906133e8565b60405180910390fd5b6106fe838383611563565b505050565b60606000610737610713846117bf565b60405160200161072391906130b9565b60405160208183030381529060405261196c565b90506009805490508161074a9190613722565b905060098181548110610786577f4e487b7100000000000000000000000000000000000000000000000000000000600052603260045260246000fd5b90600052602060002001805461079b906136a7565b80601f01602080910402602001604051908101604052809291908181526020018280546107c7906136a7565b80156108145780601f106107e957610100808354040283529160200191610814565b820191906000526020600020905b8154815290600101906020018083116107f757829003601f168201915b5050505050915050919050565b61083c83838360405180602001604052806000815250610cdc565b505050565b6000806002600084815260200190815260200160002060009054906101000a900473ffffffffffffffffffffffffffffffffffffffff169050600073ffffffffffffffffffffffffffffffffffffffff168173ffffffffffffffffffffffffffffffffffffffff1614156108ea576040517f08c379a00000000000000000000000000000000000000000000000000000000081526004016108e1906132e8565b60405180910390fd5b80915050919050565b60008073ffffffffffffffffffffffffffffffffffffffff168273ffffffffffffffffffffffffffffffffffffffff161415610964576040517f08c379a000000000000000000000000000000000000000000000000000000000815260040161095b906132c8565b60405180910390fd5b600360008373ffffffffffffffffffffffffffffffffffffffff1673ffffffffffffffffffffffffffffffffffffffff168152602001908152602001600020549050919050565b6060600180546109ba906136a7565b80601f01602080910402602001604051908101604052809291908181526020018280546109e6906136a7565b8015610a335780601f10610a0857610100808354040283529160200191610a33565b820191906000526020600020905b815481529060010190602001808311610a1657829003601f168201915b5050505050905090565b610a456113c4565b73ffffffffffffffffffffffffffffffffffffffff168273ffffffffffffffffffffffffffffffffffffffff161415610ab3576040517f08c379a0000000000000000000000000000000000000000000000000000000008152600401610aaa90613268565b60405180910390fd5b8060056000610ac06113c4565b73ffffffffffffffffffffffffffffffffffffffff1673ffffffffffffffffffffffffffffffffffffffff16815260200190815260200160002060008473ffffffffffffffffffffffffffffffffffffffff1673ffffffffffffffffffffffffffffffffffffffff16815260200190815260200160002060006101000a81548160ff0219169083151502179055508173ffffffffffffffffffffffffffffffffffffffff16610b6d6113c4565b73ffffffffffffffffffffffffffffffffffffffff167f17307eab39ab6107e8899845ad3d59bd9653f200f220920489ca2b5937696c3183604051610bb2919061318d565b60405180910390a35050565b60606000610bf2610bce846117bf565b604051602001610bde9190613052565b60405160208183030381529060405261196c565b9050600a8054905081610c059190613722565b9050600a8181548110610c41577f4e487b7100000000000000000000000000000000000000000000000000000000600052603260045260246000fd5b906000526020600020018054610c56906136a7565b80601f0160208091040260200160405190810160405280929190818152602001828054610c82906136a7565b8015610ccf5780601f10610ca457610100808354040283529160200191610ccf565b820191906000526020600020905b815481529060010190602001808311610cb257829003601f168201915b5050505050915050919050565b610ced610ce76113c4565b83611485565b610d2c576040517f08c379a0000000000000000000000000000000000000000000000000000000008152600401610d23906133e8565b60405180910390fd5b610d388484848461199f565b50505050565b60606000610d72610d4e846117bf565b604051602001610d5e9190613030565b60405160208183030381529060405261196c565b9050600b8054905081610d859190613722565b9050600b8181548110610dc1577f4e487b7100000000000000000000000000000000000000000000000000000000600052603260045260246000fd5b906000526020600020018054610dd6906136a7565b80601f0160208091040260200160405190810160405280929190818152602001828054610e02906136a7565b8015610e4f5780601f10610e2457610100808354040283529160200191610e4f565b820191906000526020600020905b815481529060010190602001808311610e3257829003601f168201915b5050505050915050919050565b6060610e6782611358565b610ea6576040517f08c379a0000000000000000000000000000000000000000000000000000000008152600401610e9d90613348565b60405180910390fd5b6000600660008481526020019081526020016000208054610ec6906136a7565b80601f0160208091040260200160405190810160405280929190818152602001828054610ef2906136a7565b8015610f3f5780601f10610f1457610100808354040283529160200191610f3f565b820191906000526020600020905b815481529060010190602001808311610f2257829003601f168201915b505050505090506000610f506119fb565b9050600081511415610f66578192505050610fa9565b600082511115610f9b578082604051602001610f83929190612f70565b60405160208183030381529060405292505050610fa9565b610fa484611a12565b925050505b919050565b6000610fba6007611ab9565b90506000610fc782610703565b90506000610fd483610bbe565b90506000610fe184610d3e565b90506000838383604051602001610ffa93929190612f94565b6040516020818303038152906040529050600060088585856040516020016110259493929190612fc5565b6040516020818303038152906040529050600061106a8361104584611ac7565b604051602001611056929190613074565b604051602081830303815290604052611ac7565b905060008160405160200161107f91906130db565b60405160208183030381529060405290506110ce6040518060400160405280601581526020017f0a2d2d2d2d2d2d2d2d2d2d2d2d2d2d2d2d2d2d2d2d0000000000000000000000815250611255565b6110d783611255565b6110ff816040516020016110eb919061300e565b604051602081830303815290604052611255565b61113d6040518060400160405280601581526020017f2d2d2d2d2d2d2d2d2d2d2d2d2d2d2d2d2d2d2d2d0a0000000000000000000000815250611255565b6111473389611c66565b6111518882611c84565b61117460405180606001604052806025815260200161387d602591398933611cf8565b61117e6007611d97565b7febb98688741ffa4c7589bf325de30cf7becb63de567842e1ccdb6cb949fdc82c33896040516111af929190613164565b60405180910390a15050505050505050565b6000600560008473ffffffffffffffffffffffffffffffffffffffff1673ffffffffffffffffffffffffffffffffffffffff16815260200190815260200160002060008373ffffffffffffffffffffffffffffffffffffffff1673ffffffffffffffffffffffffffffffffffffffff16815260200190815260200160002060009054906101000a900460ff16905092915050565b6112eb8160405160240161126991906131a8565b6040516020818303038152906040527f41304fac000000000000000000000000000000000000000000000000000000007bffffffffffffffffffffffffffffffffffffffffffffffffffffffff19166020820180517bffffffffffffffffffffffffffffffffffffffffffffffffffffffff8381831617835250505050611dad565b50565b60007f01ffc9a7000000000000000000000000000000000000000000000000000000007bffffffffffffffffffffffffffffffffffffffffffffffffffffffff1916827bffffffffffffffffffffffffffffffffffffffffffffffffffffffff1916149050919050565b60008073ffffffffffffffffffffffffffffffffffffffff166002600084815260200190815260200160002060009054906101000a900473ffffffffffffffffffffffffffffffffffffffff1673ffffffffffffffffffffffffffffffffffffffff1614159050919050565b600033905090565b816004600083815260200190815260200160002060006101000a81548173ffffffffffffffffffffffffffffffffffffffff021916908373ffffffffffffffffffffffffffffffffffffffff160217905550808273ffffffffffffffffffffffffffffffffffffffff1661143f83610841565b73ffffffffffffffffffffffffffffffffffffffff167f8c5be1e5ebec7d5bd14f71427d1e84f3dd0314c0f7b2291e5b200ac8c7c3b92560405160405180910390a45050565b600061149082611358565b6114cf576040517f08c379a00000000000000000000000000000000000000000000000000000000081526004016114c690613288565b60405180910390fd5b60006114da83610841565b90508073ffffffffffffffffffffffffffffffffffffffff168473ffffffffffffffffffffffffffffffffffffffff16148061154957508373ffffffffffffffffffffffffffffffffffffffff1661153184610506565b73ffffffffffffffffffffffffffffffffffffffff16145b8061155a575061155981856111c1565b5b91505092915050565b8273ffffffffffffffffffffffffffffffffffffffff1661158382610841565b73ffffffffffffffffffffffffffffffffffffffff16146115d9576040517f08c379a00000000000000000000000000000000000000000000000000000000081526004016115d090613388565b60405180910390fd5b600073ffffffffffffffffffffffffffffffffffffffff168273ffffffffffffffffffffffffffffffffffffffff161415611649576040517f08c379a000000000000000000000000000000000000000000000000000000000815260040161164090613248565b60405180910390fd5b611654838383611dd6565b61165f6000826113cc565b6001600360008573ffffffffffffffffffffffffffffffffffffffff1673ffffffffffffffffffffffffffffffffffffffff16815260200190815260200160002060008282546116af91906135bd565b925050819055506001600360008473ffffffffffffffffffffffffffffffffffffffff1673ffffffffffffffffffffffffffffffffffffffff168152602001908152602001600020600082825461170691906134dc565b92505081905550816002600083815260200190815260200160002060006101000a81548173ffffffffffffffffffffffffffffffffffffffff021916908373ffffffffffffffffffffffffffffffffffffffff160217905550808273ffffffffffffffffffffffffffffffffffffffff168473ffffffffffffffffffffffffffffffffffffffff167fddf252ad1be2c89b69c2b068fc378daa952ba7f163c4a11628f55a4df523b3ef60405160405180910390a4505050565b60606000821415611807576040518060400160405280600181526020017f30000000000000000000000000000000000000000000000000000000000000008152509050611967565b600082905060005b60008214611839578080611822906136d9565b915050600a826118329190613532565b915061180f565b60008167ffffffffffffffff81111561187b577f4e487b7100000000000000000000000000000000000000000000000000000000600052604160045260246000fd5b6040519080825280601f01601f1916602001820160405280156118ad5781602001600182028036833780820191505090505b5090505b60008514611960576001826118c691906135bd565b9150600a856118d59190613722565b60306118e191906134dc565b60f81b81838151811061191d577f4e487b7100000000000000000000000000000000000000000000000000000000600052603260045260246000fd5b60200101907effffffffffffffffffffffffffffffffffffffffffffffffffffffffffffff1916908160001a905350600a856119599190613532565b94506118b1565b8093505050505b919050565b60008160405160200161197f9190612f59565b6040516020818303038152906040528051906020012060001c9050919050565b6119aa848484611563565b6119b684848484611ddb565b6119f5576040517f08c379a00000000000000000000000000000000000000000000000000000000081526004016119ec90613208565b60405180910390fd5b50505050565b606060405180602001604052806000815250905090565b6060611a1d82611358565b611a5c576040517f08c379a0000000000000000000000000000000000000000000000000000000008152600401611a53906133a8565b60405180910390fd5b6000611a666119fb565b90506000815111611a865760405180602001604052806000815250611ab1565b80611a90846117bf565b604051602001611aa1929190612f70565b6040516020818303038152906040525b915050919050565b600081600001549050919050565b6060600082511415611aea57604051806020016040528060008152509050611c61565b60006040518060600160405280604081526020016138a26040913990506000600360028551611b1991906134dc565b611b239190613532565b6004611b2f9190613563565b90506000602082611b4091906134dc565b67ffffffffffffffff811115611b7f577f4e487b7100000000000000000000000000000000000000000000000000000000600052604160045260246000fd5b6040519080825280601f01601f191660200182016040528015611bb15781602001600182028036833780820191505090505b509050818152600183018586518101602084015b81831015611c20576003830192508251603f8160121c168501518253600182019150603f81600c1c168501518253600182019150603f8160061c168501518253600182019150603f8116850151825360018201915050611bc5565b600389510660018114611c3a5760028114611c4a57611c55565b613d3d60f01b6002830352611c55565b603d60f81b60018303525b50505050508093505050505b919050565b611c80828260405180602001604052806000815250611f72565b5050565b611c8d82611358565b611ccc576040517f08c379a0000000000000000000000000000000000000000000000000000000008152600401611cc390613308565b60405180910390fd5b80600660008481526020019081526020016000209080519060200190611cf39291906121ae565b505050565b611d92838383604051602401611d10939291906131ca565b6040516020818303038152906040527fe3849f79000000000000000000000000000000000000000000000000000000007bffffffffffffffffffffffffffffffffffffffffffffffffffffffff19166020820180517bffffffffffffffffffffffffffffffffffffffffffffffffffffffff8381831617835250505050611dad565b505050565b6001816000016000828254019250508190555050565b60008151905060006a636f6e736f6c652e6c6f679050602083016000808483855afa5050505050565b505050565b6000611dfc8473ffffffffffffffffffffffffffffffffffffffff16611fcd565b15611f65578373ffffffffffffffffffffffffffffffffffffffff1663150b7a02611e256113c4565b8786866040518563ffffffff1660e01b8152600401611e479493929190613118565b602060405180830381600087803b158015611e6157600080fd5b505af1925050508015611e9257506040513d601f19601f82011682018060405250810190611e8f91906124f2565b60015b611f15573d8060008114611ec2576040519150601f19603f3d011682016040523d82523d6000602084013e611ec7565b606091505b50600081511415611f0d576040517f08c379a0000000000000000000000000000000000000000000000000000000008152600401611f0490613208565b60405180910390fd5b805181602001fd5b63150b7a0260e01b7bffffffffffffffffffffffffffffffffffffffffffffffffffffffff1916817bffffffffffffffffffffffffffffffffffffffffffffffffffffffff191614915050611f6a565b600190505b949350505050565b611f7c8383611fe0565b611f896000848484611ddb565b611fc8576040517f08c379a0000000000000000000000000000000000000000000000000000000008152600401611fbf90613208565b60405180910390fd5b505050565b600080823b905060008111915050919050565b600073ffffffffffffffffffffffffffffffffffffffff168273ffffffffffffffffffffffffffffffffffffffff161415612050576040517f08c379a000000000000000000000000000000000000000000000000000000000815260040161204790613328565b60405180910390fd5b61205981611358565b15612099576040517f08c379a000000000000000000000000000000000000000000000000000000000815260040161209090613228565b60405180910390fd5b6120a560008383611dd6565b6001600360008473ffffffffffffffffffffffffffffffffffffffff1673ffffffffffffffffffffffffffffffffffffffff16815260200190815260200160002060008282546120f591906134dc565b92505081905550816002600083815260200190815260200160002060006101000a81548173ffffffffffffffffffffffffffffffffffffffff021916908373ffffffffffffffffffffffffffffffffffffffff160217905550808273ffffffffffffffffffffffffffffffffffffffff16600073ffffffffffffffffffffffffffffffffffffffff167fddf252ad1be2c89b69c2b068fc378daa952ba7f163c4a11628f55a4df523b3ef60405160405180910390a45050565b8280546121ba906136a7565b90600052602060002090601f0160209004810192826121dc5760008555612223565b82601f106121f557805160ff1916838001178555612223565b82800160010185558215612223579182015b82811115612222578251825591602001919060010190612207565b5b5090506122309190612234565b5090565b5b8082111561224d576000816000905550600101612235565b5090565b600061226461225f84613454565b613423565b90508281526020810184848401111561227c57600080fd5b612287848285613665565b509392505050565b60008135905061229e81613820565b92915050565b6000813590506122b381613837565b92915050565b6000813590506122c88161384e565b92915050565b6000815190506122dd8161384e565b92915050565b600082601f8301126122f457600080fd5b8135612304848260208601612251565b91505092915050565b60008135905061231c81613865565b92915050565b60006020828403121561233457600080fd5b60006123428482850161228f565b91505092915050565b6000806040838503121561235e57600080fd5b600061236c8582860161228f565b925050602061237d8582860161228f565b9150509250929050565b60008060006060848603121561239c57600080fd5b60006123aa8682870161228f565b93505060206123bb8682870161228f565b92505060406123cc8682870161230d565b9150509250925092565b600080600080608085870312156123ec57600080fd5b60006123fa8782880161228f565b945050602061240b8782880161228f565b935050604061241c8782880161230d565b925050606085013567ffffffffffffffff81111561243957600080fd5b612445878288016122e3565b91505092959194509250565b6000806040838503121561246457600080fd5b60006124728582860161228f565b9250506020612483858286016122a4565b9150509250929050565b600080604083850312156124a057600080fd5b60006124ae8582860161228f565b92505060206124bf8582860161230d565b9150509250929050565b6000602082840312156124db57600080fd5b60006124e9848285016122b9565b91505092915050565b60006020828403121561250457600080fd5b6000612512848285016122ce565b91505092915050565b60006020828403121561252d57600080fd5b600061253b8482850161230d565b91505092915050565b61254d816135f1565b82525050565b61255c81613603565b82525050565b600061256d82613499565b61257781856134af565b9350612587818560208601613674565b6125908161380f565b840191505092915050565b60006125a6826134a4565b6125b081856134c0565b93506125c0818560208601613674565b6125c98161380f565b840191505092915050565b60006125df826134a4565b6125e981856134d1565b93506125f9818560208601613674565b80840191505092915050565b60008154612612816136a7565b61261c81866134d1565b9450600182166000811461263757600181146126485761267b565b60ff1983168652818601935061267b565b61265185613484565b60005b8381101561267357815481890152600182019150602081019050612654565b838801955050505b50505092915050565b60006126916025836134d1565b91507f68747470733a2f2f6e6674707265766965772e30786465762e636f6465732f3f60008301527f636f64653d0000000000000000000000000000000000000000000000000000006020830152602582019050919050565b60006126f76032836134c0565b91507f4552433732313a207472616e7366657220746f206e6f6e20455243373231526560008301527f63656976657220696d706c656d656e74657200000000000000000000000000006020830152604082019050919050565b600061275d601c836134c0565b91507f4552433732313a20746f6b656e20616c7265616479206d696e746564000000006000830152602082019050919050565b600061279d600a836134d1565b91507f54484952445f574f5244000000000000000000000000000000000000000000006000830152600a82019050919050565b60006127dd6024836134c0565b91507f4552433732313a207472616e7366657220746f20746865207a65726f2061646460008301527f72657373000000000000000000000000000000000000000000000000000000006020830152604082019050919050565b60006128436019836134c0565b91507f4552433732313a20617070726f766520746f2063616c6c6572000000000000006000830152602082019050919050565b60006128836063836134d1565b91507f222c20226465736372697074696f6e223a20224120686967686c79206163636c60008301527f61696d656420636f6c6c656374696f6e206f6620737175617265732e222c202260208301527f696d616765223a2022646174613a696d6167652f7376672b786d6c3b6261736560408301527f36342c00000000000000000000000000000000000000000000000000000000006060830152606382019050919050565b6000612935600b836134d1565b91507f5345434f4e445f574f52440000000000000000000000000000000000000000006000830152600b82019050919050565b6000612975602c836134c0565b91507f4552433732313a206f70657261746f7220717565727920666f72206e6f6e657860008301527f697374656e7420746f6b656e00000000000000000000000000000000000000006020830152604082019050919050565b60006129db600d836134d1565b91507f3c2f746578743e3c2f7376673e000000000000000000000000000000000000006000830152600d82019050919050565b6000612a1b6038836134c0565b91507f4552433732313a20617070726f76652063616c6c6572206973206e6f74206f7760008301527f6e6572206e6f7220617070726f76656420666f7220616c6c00000000000000006020830152604082019050919050565b6000612a81602a836134c0565b91507f4552433732313a2062616c616e636520717565727920666f7220746865207a6560008301527f726f2061646472657373000000000000000000000000000000000000000000006020830152604082019050919050565b6000612ae76029836134c0565b91507f4552433732313a206f776e657220717565727920666f72206e6f6e657869737460008301527f656e7420746f6b656e00000000000000000000000000000000000000000000006020830152604082019050919050565b6000612b4d602e836134c0565b91507f45524337323155524953746f726167653a2055524920736574206f66206e6f6e60008301527f6578697374656e7420746f6b656e0000000000000000000000000000000000006020830152604082019050919050565b6000612bb36002836134d1565b91507f227d0000000000000000000000000000000000000000000000000000000000006000830152600282019050919050565b6000612bf36020836134c0565b91507f4552433732313a206d696e7420746f20746865207a65726f20616464726573736000830152602082019050919050565b6000612c336031836134c0565b91507f45524337323155524953746f726167653a2055524920717565727920666f722060008301527f6e6f6e6578697374656e7420746f6b656e0000000000000000000000000000006020830152604082019050919050565b6000612c99602c836134c0565b91507f4552433732313a20617070726f76656420717565727920666f72206e6f6e657860008301527f697374656e7420746f6b656e00000000000000000000000000000000000000006020830152604082019050919050565b6000612cff6029836134c0565b91507f4552433732313a207472616e73666572206f6620746f6b656e2074686174206960008301527f73206e6f74206f776e00000000000000000000000000000000000000000000006020830152604082019050919050565b6000612d65602f836134c0565b91507f4552433732314d657461646174613a2055524920717565727920666f72206e6f60008301527f6e6578697374656e7420746f6b656e00000000000000000000000000000000006020830152604082019050919050565b6000612dcb600a836134d1565b91507f7b226e616d65223a2022000000000000000000000000000000000000000000006000830152600a82019050919050565b6000612e0b6021836134c0565b91507f4552433732313a20617070726f76616c20746f2063757272656e74206f776e6560008301527f72000000000000000000000000000000000000000000000000000000000000006020830152604082019050919050565b6000612e71600a836134d1565b91507f46495253545f574f5244000000000000000000000000000000000000000000006000830152600a82019050919050565b6000612eb1601d836134d1565b91507f646174613a6170706c69636174696f6e2f6a736f6e3b6261736536342c0000006000830152601d82019050919050565b6000612ef16031836134c0565b91507f4552433732313a207472616e736665722063616c6c6572206973206e6f74206f60008301527f776e6572206e6f7220617070726f7665640000000000000000000000000000006020830152604082019050919050565b612f538161365b565b82525050565b6000612f6582846125d4565b915081905092915050565b6000612f7c82856125d4565b9150612f8882846125d4565b91508190509392505050565b6000612fa082866125d4565b9150612fac82856125d4565b9150612fb882846125d4565b9150819050949350505050565b6000612fd18287612605565b9150612fdd82866125d4565b9150612fe982856125d4565b9150612ff582846125d4565b9150613000826129ce565b915081905095945050505050565b600061301982612684565b915061302582846125d4565b915081905092915050565b600061303b82612790565b915061304782846125d4565b915081905092915050565b600061305d82612928565b915061306982846125d4565b915081905092915050565b600061307f82612dbe565b915061308b82856125d4565b915061309682612876565b91506130a282846125d4565b91506130ad82612ba6565b91508190509392505050565b60006130c482612e64565b91506130d082846125d4565b915081905092915050565b60006130e682612ea4565b91506130f282846125d4565b915081905092915050565b60006020820190506131126000830184612544565b92915050565b600060808201905061312d6000830187612544565b61313a6020830186612544565b6131476040830185612f4a565b81810360608301526131598184612562565b905095945050505050565b60006040820190506131796000830185612544565b6131866020830184612f4a565b9392505050565b60006020820190506131a26000830184612553565b92915050565b600060208201905081810360008301526131c2818461259b565b905092915050565b600060608201905081810360008301526131e4818661259b565b90506131f36020830185612f4a565b6132006040830184612544565b949350505050565b60006020820190508181036000830152613221816126ea565b9050919050565b6000602082019050818103600083015261324181612750565b9050919050565b60006020820190508181036000830152613261816127d0565b9050919050565b6000602082019050818103600083015261328181612836565b9050919050565b600060208201905081810360008301526132a181612968565b9050919050565b600060208201905081810360008301526132c181612a0e565b9050919050565b600060208201905081810360008301526132e181612a74565b9050919050565b6000602082019050818103600083015261330181612ada565b9050919050565b6000602082019050818103600083015261332181612b40565b9050919050565b6000602082019050818103600083015261334181612be6565b9050919050565b6000602082019050818103600083015261336181612c26565b9050919050565b6000602082019050818103600083015261338181612c8c565b9050919050565b600060208201905081810360008301526133a181612cf2565b9050919050565b600060208201905081810360008301526133c181612d58565b9050919050565b600060208201905081810360008301526133e181612dfe565b9050919050565b6000602082019050818103600083015261340181612ee4565b9050919050565b600060208201905061341d6000830184612f4a565b92915050565b6000604051905081810181811067ffffffffffffffff8211171561344a576134496137e0565b5b8060405250919050565b600067ffffffffffffffff82111561346f5761346e6137e0565b5b601f19601f8301169050602081019050919050565b60008190508160005260206000209050919050565b600081519050919050565b600081519050919050565b600082825260208201905092915050565b600082825260208201905092915050565b600081905092915050565b60006134e78261365b565b91506134f28361365b565b9250827fffffffffffffffffffffffffffffffffffffffffffffffffffffffffffffffff0382111561352757613526613753565b5b828201905092915050565b600061353d8261365b565b91506135488361365b565b92508261355857613557613782565b5b828204905092915050565b600061356e8261365b565b91506135798361365b565b9250817fffffffffffffffffffffffffffffffffffffffffffffffffffffffffffffffff04831182151516156135b2576135b1613753565b5b828202905092915050565b60006135c88261365b565b91506135d38361365b565b9250828210156135e6576135e5613753565b5b828203905092915050565b60006135fc8261363b565b9050919050565b60008115159050919050565b60007fffffffff0000000000000000000000000000000000000000000000000000000082169050919050565b600073ffffffffffffffffffffffffffffffffffffffff82169050919050565b6000819050919050565b82818337600083830152505050565b60005b83811015613692578082015181840152602081019050613677565b838111156136a1576000848401525b50505050565b600060028204905060018216806136bf57607f821691505b602082108114156136d3576136d26137b1565b5b50919050565b60006136e48261365b565b91507fffffffffffffffffffffffffffffffffffffffffffffffffffffffffffffffff82141561371757613716613753565b5b600182019050919050565b600061372d8261365b565b91506137388361365b565b92508261374857613747613782565b5b828206905092915050565b7f4e487b7100000000000000000000000000000000000000000000000000000000600052601160045260246000fd5b7f4e487b7100000000000000000000000000000000000000000000000000000000600052601260045260246000fd5b7f4e487b7100000000000000000000000000000000000000000000000000000000600052602260045260246000fd5b7f4e487b7100000000000000000000000000000000000000000000000000000000600052604160045260246000fd5b6000601f19601f8301169050919050565b613829816135f1565b811461383457600080fd5b50565b61384081613603565b811461384b57600080fd5b50565b6138578161360f565b811461386257600080fd5b50565b61386e8161365b565b811461387957600080fd5b5056fe416e204e465420772f20494420257320686173206265656e206d696e74656420746f2025734142434445464748494a4b4c4d4e4f505152535455565758595a6162636465666768696a6b6c6d6e6f707172737475767778797a303132333435363738392b2fa2646970667358221220555655333330520bb9aa07a4e235f7b72f72a07b7cfb81c56ad63db9ab13ac6f64736f6c634300080000333c73766720786d6c6e733d27687474703a2f2f7777772e77332e6f72672f323030302f73766727207072657365727665417370656374526174696f3d27784d696e594d696e206d656574272076696577426f783d273020302033353020333530273e3c7374796c653e2e62617365207b2066696c6c3a2077686974653b20666f6e742d66616d696c793a2073657269663b20666f6e742d73697a653a20323470783b207d3c2f7374796c653e3c726563742077696474683d273130302527206865696768743d2731303025272066696c6c3d27626c61636b27202f3e3c7465787420783d273530252720793d273530252720636c6173733d27626173652720646f6d696e616e742d626173656c696e653d276d6964646c652720746578742d616e63686f723d276d6964646c65273e",
  "linkReferences": {},
  "deployedLinkReferences": {}
}